{
  "_format": "hh-sol-artifact-1",
  "contractName": "FungibleToken",
  "sourceName": "contracts/fungibleToken.sol",
  "abi": [
    {
      "inputs": [
        {
          "internalType": "uint256",
          "name": "_maxSupply",
          "type": "uint256"
        }
      ],
      "stateMutability": "nonpayable",
      "type": "constructor"
    },
    {
      "inputs": [
        {
          "internalType": "address",
          "name": "spender",
          "type": "address"
        },
        {
          "internalType": "uint256",
          "name": "allowance",
          "type": "uint256"
        },
        {
          "internalType": "uint256",
          "name": "needed",
          "type": "uint256"
        }
      ],
      "name": "ERC20InsufficientAllowance",
      "type": "error"
    },
    {
      "inputs": [
        {
          "internalType": "address",
          "name": "sender",
          "type": "address"
        },
        {
          "internalType": "uint256",
          "name": "balance",
          "type": "uint256"
        },
        {
          "internalType": "uint256",
          "name": "needed",
          "type": "uint256"
        }
      ],
      "name": "ERC20InsufficientBalance",
      "type": "error"
    },
    {
      "inputs": [
        {
          "internalType": "address",
          "name": "approver",
          "type": "address"
        }
      ],
      "name": "ERC20InvalidApprover",
      "type": "error"
    },
    {
      "inputs": [
        {
          "internalType": "address",
          "name": "receiver",
          "type": "address"
        }
      ],
      "name": "ERC20InvalidReceiver",
      "type": "error"
    },
    {
      "inputs": [
        {
          "internalType": "address",
          "name": "sender",
          "type": "address"
        }
      ],
      "name": "ERC20InvalidSender",
      "type": "error"
    },
    {
      "inputs": [
        {
          "internalType": "address",
          "name": "spender",
          "type": "address"
        }
      ],
      "name": "ERC20InvalidSpender",
      "type": "error"
    },
    {
      "inputs": [
        {
          "internalType": "address",
          "name": "owner",
          "type": "address"
        }
      ],
      "name": "OwnableInvalidOwner",
      "type": "error"
    },
    {
      "inputs": [
        {
          "internalType": "address",
          "name": "account",
          "type": "address"
        }
      ],
      "name": "OwnableUnauthorizedAccount",
      "type": "error"
    },
    {
      "anonymous": false,
      "inputs": [
        {
          "indexed": true,
          "internalType": "address",
          "name": "owner",
          "type": "address"
        },
        {
          "indexed": true,
          "internalType": "address",
          "name": "spender",
          "type": "address"
        },
        {
          "indexed": false,
          "internalType": "uint256",
          "name": "value",
          "type": "uint256"
        }
      ],
      "name": "Approval",
      "type": "event"
    },
    {
      "anonymous": false,
      "inputs": [
        {
          "indexed": true,
          "internalType": "address",
          "name": "previousOwner",
          "type": "address"
        },
        {
          "indexed": true,
          "internalType": "address",
          "name": "newOwner",
          "type": "address"
        }
      ],
      "name": "OwnershipTransferred",
      "type": "event"
    },
    {
      "anonymous": false,
      "inputs": [
        {
          "indexed": true,
          "internalType": "address",
          "name": "from",
          "type": "address"
        },
        {
          "indexed": true,
          "internalType": "address",
          "name": "to",
          "type": "address"
        },
        {
          "indexed": false,
          "internalType": "uint256",
          "name": "value",
          "type": "uint256"
        }
      ],
      "name": "Transfer",
      "type": "event"
    },
    {
      "inputs": [
        {
          "internalType": "address",
          "name": "owner",
          "type": "address"
        },
        {
          "internalType": "address",
          "name": "spender",
          "type": "address"
        }
      ],
      "name": "allowance",
      "outputs": [
        {
          "internalType": "uint256",
          "name": "",
          "type": "uint256"
        }
      ],
      "stateMutability": "view",
      "type": "function"
    },
    {
      "inputs": [
        {
          "internalType": "address",
          "name": "spender",
          "type": "address"
        },
        {
          "internalType": "uint256",
          "name": "value",
          "type": "uint256"
        }
      ],
      "name": "approve",
      "outputs": [
        {
          "internalType": "bool",
          "name": "",
          "type": "bool"
        }
      ],
      "stateMutability": "nonpayable",
      "type": "function"
    },
    {
      "inputs": [
        {
          "internalType": "address",
          "name": "account",
          "type": "address"
        }
      ],
      "name": "balanceOf",
      "outputs": [
        {
          "internalType": "uint256",
          "name": "",
          "type": "uint256"
        }
      ],
      "stateMutability": "view",
      "type": "function"
    },
    {
      "inputs": [],
      "name": "decimals",
      "outputs": [
        {
          "internalType": "uint8",
          "name": "",
          "type": "uint8"
        }
      ],
      "stateMutability": "view",
      "type": "function"
    },
    {
      "inputs": [],
      "name": "maxSupply",
      "outputs": [
        {
          "internalType": "uint256",
          "name": "",
          "type": "uint256"
        }
      ],
      "stateMutability": "view",
      "type": "function"
    },
    {
      "inputs": [
        {
          "internalType": "address",
          "name": "to",
          "type": "address"
        },
        {
          "internalType": "uint256",
          "name": "amount",
          "type": "uint256"
        }
      ],
      "name": "mint",
      "outputs": [],
      "stateMutability": "nonpayable",
      "type": "function"
    },
    {
      "inputs": [],
      "name": "name",
      "outputs": [
        {
          "internalType": "string",
          "name": "",
          "type": "string"
        }
      ],
      "stateMutability": "view",
      "type": "function"
    },
    {
      "inputs": [],
      "name": "nftContract",
      "outputs": [
        {
          "internalType": "address",
          "name": "",
          "type": "address"
        }
      ],
      "stateMutability": "view",
      "type": "function"
    },
    {
      "inputs": [],
      "name": "owner",
      "outputs": [
        {
          "internalType": "address",
          "name": "",
          "type": "address"
        }
      ],
      "stateMutability": "view",
      "type": "function"
    },
    {
      "inputs": [],
      "name": "renounceOwnership",
      "outputs": [],
      "stateMutability": "nonpayable",
      "type": "function"
    },
    {
      "inputs": [
        {
          "internalType": "address",
          "name": "_nftContract",
          "type": "address"
        }
      ],
      "name": "setNFTContract",
      "outputs": [],
      "stateMutability": "nonpayable",
      "type": "function"
    },
    {
      "inputs": [],
      "name": "symbol",
      "outputs": [
        {
          "internalType": "string",
          "name": "",
          "type": "string"
        }
      ],
      "stateMutability": "view",
      "type": "function"
    },
    {
      "inputs": [],
      "name": "totalSupply",
      "outputs": [
        {
          "internalType": "uint256",
          "name": "",
          "type": "uint256"
        }
      ],
      "stateMutability": "view",
      "type": "function"
    },
    {
      "inputs": [
        {
          "internalType": "address",
          "name": "to",
          "type": "address"
        },
        {
          "internalType": "uint256",
          "name": "value",
          "type": "uint256"
        }
      ],
      "name": "transfer",
      "outputs": [
        {
          "internalType": "bool",
          "name": "",
          "type": "bool"
        }
      ],
      "stateMutability": "nonpayable",
      "type": "function"
    },
    {
      "inputs": [
        {
          "internalType": "address",
          "name": "from",
          "type": "address"
        },
        {
          "internalType": "address",
          "name": "to",
          "type": "address"
        },
        {
          "internalType": "uint256",
          "name": "value",
          "type": "uint256"
        }
      ],
      "name": "transferFrom",
      "outputs": [
        {
          "internalType": "bool",
          "name": "",
          "type": "bool"
        }
      ],
      "stateMutability": "nonpayable",
      "type": "function"
    },
    {
      "inputs": [
        {
          "internalType": "address",
          "name": "newOwner",
          "type": "address"
        }
      ],
      "name": "transferOwnership",
      "outputs": [],
      "stateMutability": "nonpayable",
      "type": "function"
    }
  ],
  "bytecode": "0x60806040523480156200001157600080fd5b5060405162001ab238038062001ab2833981810160405281019062000037919062000265565b336040518060400160405280600d81526020017f46756e6769626c65546f6b656e000000000000000000000000000000000000008152506040518060400160405280600481526020017f46544f4b000000000000000000000000000000000000000000000000000000008152508160039081620000b5919062000507565b508060049081620000c7919062000507565b505050600073ffffffffffffffffffffffffffffffffffffffff168173ffffffffffffffffffffffffffffffffffffffff16036200013f5760006040517f1e4fbdf700000000000000000000000000000000000000000000000000000000815260040162000136919062000633565b60405180910390fd5b62000150816200015f60201b60201c565b50806006819055505062000650565b6000600560009054906101000a900473ffffffffffffffffffffffffffffffffffffffff16905081600560006101000a81548173ffffffffffffffffffffffffffffffffffffffff021916908373ffffffffffffffffffffffffffffffffffffffff1602179055508173ffffffffffffffffffffffffffffffffffffffff168173ffffffffffffffffffffffffffffffffffffffff167f8be0079c531659141344cd1fd0a4f28419497f9722a3daafe3b4186f6b6457e060405160405180910390a35050565b600080fd5b6000819050919050565b6200023f816200022a565b81146200024b57600080fd5b50565b6000815190506200025f8162000234565b92915050565b6000602082840312156200027e576200027d62000225565b5b60006200028e848285016200024e565b91505092915050565b600081519050919050565b7f4e487b7100000000000000000000000000000000000000000000000000000000600052604160045260246000fd5b7f4e487b7100000000000000000000000000000000000000000000000000000000600052602260045260246000fd5b600060028204905060018216806200031957607f821691505b6020821081036200032f576200032e620002d1565b5b50919050565b60008190508160005260206000209050919050565b60006020601f8301049050919050565b600082821b905092915050565b600060088302620003997fffffffffffffffffffffffffffffffffffffffffffffffffffffffffffffffff826200035a565b620003a586836200035a565b95508019841693508086168417925050509392505050565b6000819050919050565b6000620003e8620003e2620003dc846200022a565b620003bd565b6200022a565b9050919050565b6000819050919050565b6200040483620003c7565b6200041c6200041382620003ef565b84845462000367565b825550505050565b600090565b6200043362000424565b62000440818484620003f9565b505050565b5b8181101562000468576200045c60008262000429565b60018101905062000446565b5050565b601f821115620004b757620004818162000335565b6200048c846200034a565b810160208510156200049c578190505b620004b4620004ab856200034a565b83018262000445565b50505b505050565b600082821c905092915050565b6000620004dc60001984600802620004bc565b1980831691505092915050565b6000620004f78383620004c9565b9150826002028217905092915050565b620005128262000297565b67ffffffffffffffff8111156200052e576200052d620002a2565b5b6200053a825462000300565b620005478282856200046c565b600060209050601f8311600181146200057f57600084156200056a578287015190505b620005768582620004e9565b865550620005e6565b601f1984166200058f8662000335565b60005b82811015620005b95784890151825560018201915060208501945060208101905062000592565b86831015620005d95784890151620005d5601f891682620004c9565b8355505b6001600288020188555050505b505050505050565b600073ffffffffffffffffffffffffffffffffffffffff82169050919050565b60006200061b82620005ee565b9050919050565b6200062d816200060e565b82525050565b60006020820190506200064a600083018462000622565b92915050565b61145280620006606000396000f3fe608060405234801561001057600080fd5b50600436106101005760003560e01c80638da5cb5b11610097578063d56d229d11610066578063d56d229d1461029d578063d5abeb01146102bb578063dd62ed3e146102d9578063f2fde38b1461030957610100565b80638da5cb5b1461021557806395d89b4114610233578063a7ccabdf14610251578063a9059cbb1461026d57610100565b8063313ce567116100d3578063313ce567146101a157806340c10f19146101bf57806370a08231146101db578063715018a61461020b57610100565b806306fdde0314610105578063095ea7b31461012357806318160ddd1461015357806323b872dd14610171575b600080fd5b61010d610325565b60405161011a9190610fce565b60405180910390f35b61013d60048036038101906101389190611089565b6103b7565b60405161014a91906110e4565b60405180910390f35b61015b6103da565b604051610168919061110e565b60405180910390f35b61018b60048036038101906101869190611129565b6103e4565b60405161019891906110e4565b60405180910390f35b6101a9610413565b6040516101b69190611198565b60405180910390f35b6101d960048036038101906101d49190611089565b61041c565b005b6101f560048036038101906101f091906111b3565b610511565b604051610202919061110e565b60405180910390f35b610213610559565b005b61021d61056d565b60405161022a91906111ef565b60405180910390f35b61023b610597565b6040516102489190610fce565b60405180910390f35b61026b600480360381019061026691906111b3565b610629565b005b61028760048036038101906102829190611089565b610675565b60405161029491906110e4565b60405180910390f35b6102a5610698565b6040516102b291906111ef565b60405180910390f35b6102c36106be565b6040516102d0919061110e565b60405180910390f35b6102f360048036038101906102ee919061120a565b6106c4565b604051610300919061110e565b60405180910390f35b610323600480360381019061031e91906111b3565b61074b565b005b60606003805461033490611279565b80601f016020809104026020016040519081016040528092919081815260200182805461036090611279565b80156103ad5780601f10610382576101008083540402835291602001916103ad565b820191906000526020600020905b81548152906001019060200180831161039057829003601f168201915b5050505050905090565b6000806103c26107d1565b90506103cf8185856107d9565b600191505092915050565b6000600254905090565b6000806103ef6107d1565b90506103fc8582856107eb565b61040785858561087f565b60019150509392505050565b60006012905090565b600760009054906101000a900473ffffffffffffffffffffffffffffffffffffffff1673ffffffffffffffffffffffffffffffffffffffff163373ffffffffffffffffffffffffffffffffffffffff16146104ac576040517f08c379a00000000000000000000000000000000000000000000000000000000081526004016104a3906112f6565b60405180910390fd5b600654816104b86103da565b6104c29190611345565b1115610503576040517f08c379a00000000000000000000000000000000000000000000000000000000081526004016104fa906113c5565b60405180910390fd5b61050d8282610973565b5050565b60008060008373ffffffffffffffffffffffffffffffffffffffff1673ffffffffffffffffffffffffffffffffffffffff168152602001908152602001600020549050919050565b6105616109f5565b61056b6000610a7c565b565b6000600560009054906101000a900473ffffffffffffffffffffffffffffffffffffffff16905090565b6060600480546105a690611279565b80601f01602080910402602001604051908101604052809291908181526020018280546105d290611279565b801561061f5780601f106105f45761010080835404028352916020019161061f565b820191906000526020600020905b81548152906001019060200180831161060257829003601f168201915b5050505050905090565b6106316109f5565b80600760006101000a81548173ffffffffffffffffffffffffffffffffffffffff021916908373ffffffffffffffffffffffffffffffffffffffff16021790555050565b6000806106806107d1565b905061068d81858561087f565b600191505092915050565b600760009054906101000a900473ffffffffffffffffffffffffffffffffffffffff1681565b60065481565b6000600160008473ffffffffffffffffffffffffffffffffffffffff1673ffffffffffffffffffffffffffffffffffffffff16815260200190815260200160002060008373ffffffffffffffffffffffffffffffffffffffff1673ffffffffffffffffffffffffffffffffffffffff16815260200190815260200160002054905092915050565b6107536109f5565b600073ffffffffffffffffffffffffffffffffffffffff168173ffffffffffffffffffffffffffffffffffffffff16036107c55760006040517f1e4fbdf70000000000000000000000000000000000000000000000000000000081526004016107bc91906111ef565b60405180910390fd5b6107ce81610a7c565b50565b600033905090565b6107e68383836001610b42565b505050565b60006107f784846106c4565b90507fffffffffffffffffffffffffffffffffffffffffffffffffffffffffffffffff81146108795781811015610869578281836040517ffb8f41b2000000000000000000000000000000000000000000000000000000008152600401610860939291906113e5565b60405180910390fd5b61087884848484036000610b42565b5b50505050565b600073ffffffffffffffffffffffffffffffffffffffff168373ffffffffffffffffffffffffffffffffffffffff16036108f15760006040517f96c6fd1e0000000000000000000000000000000000000000000000000000000081526004016108e891906111ef565b60405180910390fd5b600073ffffffffffffffffffffffffffffffffffffffff168273ffffffffffffffffffffffffffffffffffffffff16036109635760006040517fec442f0500000000000000000000000000000000000000000000000000000000815260040161095a91906111ef565b60405180910390fd5b61096e838383610d19565b505050565b600073ffffffffffffffffffffffffffffffffffffffff168273ffffffffffffffffffffffffffffffffffffffff16036109e55760006040517fec442f050000000000000000000000000000000000000000000000000000000081526004016109dc91906111ef565b60405180910390fd5b6109f160008383610d19565b5050565b6109fd6107d1565b73ffffffffffffffffffffffffffffffffffffffff16610a1b61056d565b73ffffffffffffffffffffffffffffffffffffffff1614610a7a57610a3e6107d1565b6040517f118cdaa7000000000000000000000000000000000000000000000000000000008152600401610a7191906111ef565b60405180910390fd5b565b6000600560009054906101000a900473ffffffffffffffffffffffffffffffffffffffff16905081600560006101000a81548173ffffffffffffffffffffffffffffffffffffffff021916908373ffffffffffffffffffffffffffffffffffffffff1602179055508173ffffffffffffffffffffffffffffffffffffffff168173ffffffffffffffffffffffffffffffffffffffff167f8be0079c531659141344cd1fd0a4f28419497f9722a3daafe3b4186f6b6457e060405160405180910390a35050565b600073ffffffffffffffffffffffffffffffffffffffff168473ffffffffffffffffffffffffffffffffffffffff1603610bb45760006040517fe602df05000000000000000000000000000000000000000000000000000000008152600401610bab91906111ef565b60405180910390fd5b600073ffffffffffffffffffffffffffffffffffffffff168373ffffffffffffffffffffffffffffffffffffffff1603610c265760006040517f94280d62000000000000000000000000000000000000000000000000000000008152600401610c1d91906111ef565b60405180910390fd5b81600160008673ffffffffffffffffffffffffffffffffffffffff1673ffffffffffffffffffffffffffffffffffffffff16815260200190815260200160002060008573ffffffffffffffffffffffffffffffffffffffff1673ffffffffffffffffffffffffffffffffffffffff168152602001908152602001600020819055508015610d13578273ffffffffffffffffffffffffffffffffffffffff168473ffffffffffffffffffffffffffffffffffffffff167f8c5be1e5ebec7d5bd14f71427d1e84f3dd0314c0f7b2291e5b200ac8c7c3b92584604051610d0a919061110e565b60405180910390a35b50505050565b600073ffffffffffffffffffffffffffffffffffffffff168373ffffffffffffffffffffffffffffffffffffffff1603610d6b578060026000828254610d5f9190611345565b92505081905550610e3e565b60008060008573ffffffffffffffffffffffffffffffffffffffff1673ffffffffffffffffffffffffffffffffffffffff16815260200190815260200160002054905081811015610df7578381836040517fe450d38c000000000000000000000000000000000000000000000000000000008152600401610dee939291906113e5565b60405180910390fd5b8181036000808673ffffffffffffffffffffffffffffffffffffffff1673ffffffffffffffffffffffffffffffffffffffff16815260200190815260200160002081905550505b600073ffffffffffffffffffffffffffffffffffffffff168273ffffffffffffffffffffffffffffffffffffffff1603610e875780600260008282540392505081905550610ed4565b806000808473ffffffffffffffffffffffffffffffffffffffff1673ffffffffffffffffffffffffffffffffffffffff168152602001908152602001600020600082825401925050819055505b8173ffffffffffffffffffffffffffffffffffffffff168373ffffffffffffffffffffffffffffffffffffffff167fddf252ad1be2c89b69c2b068fc378daa952ba7f163c4a11628f55a4df523b3ef83604051610f31919061110e565b60405180910390a3505050565b600081519050919050565b600082825260208201905092915050565b60005b83811015610f78578082015181840152602081019050610f5d565b60008484015250505050565b6000601f19601f8301169050919050565b6000610fa082610f3e565b610faa8185610f49565b9350610fba818560208601610f5a565b610fc381610f84565b840191505092915050565b60006020820190508181036000830152610fe88184610f95565b905092915050565b600080fd5b600073ffffffffffffffffffffffffffffffffffffffff82169050919050565b600061102082610ff5565b9050919050565b61103081611015565b811461103b57600080fd5b50565b60008135905061104d81611027565b92915050565b6000819050919050565b61106681611053565b811461107157600080fd5b50565b6000813590506110838161105d565b92915050565b600080604083850312156110a05761109f610ff0565b5b60006110ae8582860161103e565b92505060206110bf85828601611074565b9150509250929050565b60008115159050919050565b6110de816110c9565b82525050565b60006020820190506110f960008301846110d5565b92915050565b61110881611053565b82525050565b600060208201905061112360008301846110ff565b92915050565b60008060006060848603121561114257611141610ff0565b5b60006111508682870161103e565b93505060206111618682870161103e565b925050604061117286828701611074565b9150509250925092565b600060ff82169050919050565b6111928161117c565b82525050565b60006020820190506111ad6000830184611189565b92915050565b6000602082840312156111c9576111c8610ff0565b5b60006111d78482850161103e565b91505092915050565b6111e981611015565b82525050565b600060208201905061120460008301846111e0565b92915050565b6000806040838503121561122157611220610ff0565b5b600061122f8582860161103e565b92505060206112408582860161103e565b9150509250929050565b7f4e487b7100000000000000000000000000000000000000000000000000000000600052602260045260246000fd5b6000600282049050600182168061129157607f821691505b6020821081036112a4576112a361124a565b5b50919050565b7f4e6f7420746865204e4654436f6e747261637400000000000000000000000000600082015250565b60006112e0601383610f49565b91506112eb826112aa565b602082019050919050565b6000602082019050818103600083015261130f816112d3565b9050919050565b7f4e487b7100000000000000000000000000000000000000000000000000000000600052601160045260246000fd5b600061135082611053565b915061135b83611053565b925082820190508082111561137357611372611316565b5b92915050565b7f45786365656473206d617820737570706c790000000000000000000000000000600082015250565b60006113af601283610f49565b91506113ba82611379565b602082019050919050565b600060208201905081810360008301526113de816113a2565b9050919050565b60006060820190506113fa60008301866111e0565b61140760208301856110ff565b61141460408301846110ff565b94935050505056fea2646970667358221220142afba2437fd342e73b1f153fc269697caf35c7d3ddfb56d63ca7d14bedf7c964736f6c63430008140033",
  "linkReferences": {},
  "deployedLinkReferences": {}
}