{
  "_format": "hh-sol-artifact-1",
  "contractName": "NFTContract",
  "sourceName": "contracts/nftcontract.sol",
  "abi": [
    {
      "inputs": [
        {
          "internalType": "address",
          "name": "_fungibleTokenAddress",
          "type": "address"
        }
      ],
      "stateMutability": "nonpayable",
      "type": "constructor"
    },
    {
      "inputs": [
        {
          "internalType": "address",
          "name": "sender",
          "type": "address"
        },
        {
          "internalType": "uint256",
          "name": "tokenId",
          "type": "uint256"
        },
        {
          "internalType": "address",
          "name": "owner",
          "type": "address"
        }
      ],
      "name": "ERC721IncorrectOwner",
      "type": "error"
    },
    {
      "inputs": [
        {
          "internalType": "address",
          "name": "operator",
          "type": "address"
        },
        {
          "internalType": "uint256",
          "name": "tokenId",
          "type": "uint256"
        }
      ],
      "name": "ERC721InsufficientApproval",
      "type": "error"
    },
    {
      "inputs": [
        {
          "internalType": "address",
          "name": "approver",
          "type": "address"
        }
      ],
      "name": "ERC721InvalidApprover",
      "type": "error"
    },
    {
      "inputs": [
        {
          "internalType": "address",
          "name": "operator",
          "type": "address"
        }
      ],
      "name": "ERC721InvalidOperator",
      "type": "error"
    },
    {
      "inputs": [
        {
          "internalType": "address",
          "name": "owner",
          "type": "address"
        }
      ],
      "name": "ERC721InvalidOwner",
      "type": "error"
    },
    {
      "inputs": [
        {
          "internalType": "address",
          "name": "receiver",
          "type": "address"
        }
      ],
      "name": "ERC721InvalidReceiver",
      "type": "error"
    },
    {
      "inputs": [
        {
          "internalType": "address",
          "name": "sender",
          "type": "address"
        }
      ],
      "name": "ERC721InvalidSender",
      "type": "error"
    },
    {
      "inputs": [
        {
          "internalType": "uint256",
          "name": "tokenId",
          "type": "uint256"
        }
      ],
      "name": "ERC721NonexistentToken",
      "type": "error"
    },
    {
      "inputs": [
        {
          "internalType": "address",
          "name": "owner",
          "type": "address"
        }
      ],
      "name": "OwnableInvalidOwner",
      "type": "error"
    },
    {
      "inputs": [
        {
          "internalType": "address",
          "name": "account",
          "type": "address"
        }
      ],
      "name": "OwnableUnauthorizedAccount",
      "type": "error"
    },
    {
      "anonymous": false,
      "inputs": [
        {
          "indexed": true,
          "internalType": "address",
          "name": "owner",
          "type": "address"
        },
        {
          "indexed": true,
          "internalType": "address",
          "name": "approved",
          "type": "address"
        },
        {
          "indexed": true,
          "internalType": "uint256",
          "name": "tokenId",
          "type": "uint256"
        }
      ],
      "name": "Approval",
      "type": "event"
    },
    {
      "anonymous": false,
      "inputs": [
        {
          "indexed": true,
          "internalType": "address",
          "name": "owner",
          "type": "address"
        },
        {
          "indexed": true,
          "internalType": "address",
          "name": "operator",
          "type": "address"
        },
        {
          "indexed": false,
          "internalType": "bool",
          "name": "approved",
          "type": "bool"
        }
      ],
      "name": "ApprovalForAll",
      "type": "event"
    },
    {
      "anonymous": false,
      "inputs": [
        {
          "indexed": true,
          "internalType": "address",
          "name": "previousOwner",
          "type": "address"
        },
        {
          "indexed": true,
          "internalType": "address",
          "name": "newOwner",
          "type": "address"
        }
      ],
      "name": "OwnershipTransferred",
      "type": "event"
    },
    {
      "anonymous": false,
      "inputs": [
        {
          "indexed": true,
          "internalType": "address",
          "name": "from",
          "type": "address"
        },
        {
          "indexed": true,
          "internalType": "address",
          "name": "to",
          "type": "address"
        },
        {
          "indexed": true,
          "internalType": "uint256",
          "name": "tokenId",
          "type": "uint256"
        }
      ],
      "name": "Transfer",
      "type": "event"
    },
    {
      "inputs": [
        {
          "internalType": "address",
          "name": "",
          "type": "address"
        }
      ],
      "name": "IntermediateTokenBalance",
      "outputs": [
        {
          "internalType": "uint256",
          "name": "",
          "type": "uint256"
        }
      ],
      "stateMutability": "view",
      "type": "function"
    },
    {
      "inputs": [],
      "name": "NFTIdCounter",
      "outputs": [
        {
          "internalType": "uint256",
          "name": "",
          "type": "uint256"
        }
      ],
      "stateMutability": "view",
      "type": "function"
    },
    {
      "inputs": [
        {
          "internalType": "address",
          "name": "to",
          "type": "address"
        },
        {
          "internalType": "uint256",
          "name": "tokenId",
          "type": "uint256"
        }
      ],
      "name": "approve",
      "outputs": [],
      "stateMutability": "nonpayable",
      "type": "function"
    },
    {
      "inputs": [
        {
          "internalType": "address",
          "name": "owner",
          "type": "address"
        }
      ],
      "name": "balanceOf",
      "outputs": [
        {
          "internalType": "uint256",
          "name": "",
          "type": "uint256"
        }
      ],
      "stateMutability": "view",
      "type": "function"
    },
    {
      "inputs": [],
      "name": "baseExtension",
      "outputs": [
        {
          "internalType": "string",
          "name": "",
          "type": "string"
        }
      ],
      "stateMutability": "view",
      "type": "function"
    },
    {
      "inputs": [],
      "name": "baseURI",
      "outputs": [
        {
          "internalType": "string",
          "name": "",
          "type": "string"
        }
      ],
      "stateMutability": "view",
      "type": "function"
    },
    {
      "inputs": [],
      "name": "claimTokens",
      "outputs": [],
      "stateMutability": "nonpayable",
      "type": "function"
    },
    {
      "inputs": [],
      "name": "fungibleToken",
      "outputs": [
        {
          "internalType": "contract FungibleToken",
          "name": "",
          "type": "address"
        }
      ],
      "stateMutability": "view",
      "type": "function"
    },
    {
      "inputs": [
        {
          "internalType": "uint256",
          "name": "tokenId",
          "type": "uint256"
        }
      ],
      "name": "getApproved",
      "outputs": [
        {
          "internalType": "address",
          "name": "",
          "type": "address"
        }
      ],
      "stateMutability": "view",
      "type": "function"
    },
    {
      "inputs": [
        {
          "internalType": "address",
          "name": "owner",
          "type": "address"
        },
        {
          "internalType": "address",
          "name": "operator",
          "type": "address"
        }
      ],
      "name": "isApprovedForAll",
      "outputs": [
        {
          "internalType": "bool",
          "name": "",
          "type": "bool"
        }
      ],
      "stateMutability": "view",
      "type": "function"
    },
    {
      "inputs": [
        {
          "internalType": "address",
          "name": "",
          "type": "address"
        }
      ],
      "name": "lastMintTimestamp",
      "outputs": [
        {
          "internalType": "uint256",
          "name": "",
          "type": "uint256"
        }
      ],
      "stateMutability": "view",
      "type": "function"
    },
    {
      "inputs": [],
      "name": "mintNFT",
      "outputs": [],
      "stateMutability": "nonpayable",
      "type": "function"
    },
    {
      "inputs": [],
      "name": "name",
      "outputs": [
        {
          "internalType": "string",
          "name": "",
          "type": "string"
        }
      ],
      "stateMutability": "view",
      "type": "function"
    },
    {
      "inputs": [],
      "name": "owner",
      "outputs": [
        {
          "internalType": "address",
          "name": "",
          "type": "address"
        }
      ],
      "stateMutability": "view",
      "type": "function"
    },
    {
      "inputs": [
        {
          "internalType": "uint256",
          "name": "tokenId",
          "type": "uint256"
        }
      ],
      "name": "ownerOf",
      "outputs": [
        {
          "internalType": "address",
          "name": "",
          "type": "address"
        }
      ],
      "stateMutability": "view",
      "type": "function"
    },
    {
      "inputs": [],
      "name": "renounceOwnership",
      "outputs": [],
      "stateMutability": "nonpayable",
      "type": "function"
    },
    {
      "inputs": [
        {
          "internalType": "address",
          "name": "from",
          "type": "address"
        },
        {
          "internalType": "address",
          "name": "to",
          "type": "address"
        },
        {
          "internalType": "uint256",
          "name": "tokenId",
          "type": "uint256"
        }
      ],
      "name": "safeTransferFrom",
      "outputs": [],
      "stateMutability": "nonpayable",
      "type": "function"
    },
    {
      "inputs": [
        {
          "internalType": "address",
          "name": "from",
          "type": "address"
        },
        {
          "internalType": "address",
          "name": "to",
          "type": "address"
        },
        {
          "internalType": "uint256",
          "name": "tokenId",
          "type": "uint256"
        },
        {
          "internalType": "bytes",
          "name": "data",
          "type": "bytes"
        }
      ],
      "name": "safeTransferFrom",
      "outputs": [],
      "stateMutability": "nonpayable",
      "type": "function"
    },
    {
      "inputs": [
        {
          "internalType": "address",
          "name": "operator",
          "type": "address"
        },
        {
          "internalType": "bool",
          "name": "approved",
          "type": "bool"
        }
      ],
      "name": "setApprovalForAll",
      "outputs": [],
      "stateMutability": "nonpayable",
      "type": "function"
    },
    {
      "inputs": [
        {
          "internalType": "string",
          "name": "_newBaseExtension",
          "type": "string"
        }
      ],
      "name": "setBaseExtension",
      "outputs": [],
      "stateMutability": "nonpayable",
      "type": "function"
    },
    {
      "inputs": [
        {
          "internalType": "string",
          "name": "_newBaseURI",
          "type": "string"
        }
      ],
      "name": "setBaseURI",
      "outputs": [],
      "stateMutability": "nonpayable",
      "type": "function"
    },
    {
      "inputs": [
        {
          "internalType": "bytes4",
          "name": "interfaceId",
          "type": "bytes4"
        }
      ],
      "name": "supportsInterface",
      "outputs": [
        {
          "internalType": "bool",
          "name": "",
          "type": "bool"
        }
      ],
      "stateMutability": "view",
      "type": "function"
    },
    {
      "inputs": [],
      "name": "symbol",
      "outputs": [
        {
          "internalType": "string",
          "name": "",
          "type": "string"
        }
      ],
      "stateMutability": "view",
      "type": "function"
    },
    {
      "inputs": [
        {
          "internalType": "uint256",
          "name": "tokenId",
          "type": "uint256"
        }
      ],
      "name": "tokenURI",
      "outputs": [
        {
          "internalType": "string",
          "name": "",
          "type": "string"
        }
      ],
      "stateMutability": "view",
      "type": "function"
    },
    {
      "inputs": [
        {
          "internalType": "address",
          "name": "from",
          "type": "address"
        },
        {
          "internalType": "address",
          "name": "to",
          "type": "address"
        },
        {
          "internalType": "uint256",
          "name": "tokenId",
          "type": "uint256"
        }
      ],
      "name": "transferFrom",
      "outputs": [],
      "stateMutability": "nonpayable",
      "type": "function"
    },
    {
      "inputs": [
        {
          "internalType": "address",
          "name": "newOwner",
          "type": "address"
        }
      ],
      "name": "transferOwnership",
      "outputs": [],
      "stateMutability": "nonpayable",
      "type": "function"
    },
    {
      "inputs": [
        {
          "internalType": "address",
          "name": "",
          "type": "address"
        }
      ],
      "name": "userNFTBalance",
      "outputs": [
        {
          "internalType": "uint256",
          "name": "",
          "type": "uint256"
        }
      ],
      "stateMutability": "view",
      "type": "function"
    }
  ],
  "bytecode": "0x60806040526001600b556040518060400160405280600581526020017f2e6a736f6e000000000000000000000000000000000000000000000000000000815250601090816200004f919062000569565b503480156200005d57600080fd5b50604051620039a8380380620039a88339818101604052810190620000839190620006ba565b336040518060400160405280600b81526020017f4e4654436f6e74726163740000000000000000000000000000000000000000008152506040518060400160405280600481526020017f4e46544300000000000000000000000000000000000000000000000000000000815250816000908162000101919062000569565b50806001908162000113919062000569565b505050600073ffffffffffffffffffffffffffffffffffffffff168173ffffffffffffffffffffffffffffffffffffffff16036200018b5760006040517f1e4fbdf7000000000000000000000000000000000000000000000000000000008152600401620001829190620006fd565b60405180910390fd5b6200019c816200022960201b60201c565b5080600760006101000a81548173ffffffffffffffffffffffffffffffffffffffff021916908373ffffffffffffffffffffffffffffffffffffffff16021790555042600960003373ffffffffffffffffffffffffffffffffffffffff1673ffffffffffffffffffffffffffffffffffffffff16815260200190815260200160002081905550506200071a565b6000600660009054906101000a900473ffffffffffffffffffffffffffffffffffffffff16905081600660006101000a81548173ffffffffffffffffffffffffffffffffffffffff021916908373ffffffffffffffffffffffffffffffffffffffff1602179055508173ffffffffffffffffffffffffffffffffffffffff168173ffffffffffffffffffffffffffffffffffffffff167f8be0079c531659141344cd1fd0a4f28419497f9722a3daafe3b4186f6b6457e060405160405180910390a35050565b600081519050919050565b7f4e487b7100000000000000000000000000000000000000000000000000000000600052604160045260246000fd5b7f4e487b7100000000000000000000000000000000000000000000000000000000600052602260045260246000fd5b600060028204905060018216806200037157607f821691505b60208210810362000387576200038662000329565b5b50919050565b60008190508160005260206000209050919050565b60006020601f8301049050919050565b600082821b905092915050565b600060088302620003f17fffffffffffffffffffffffffffffffffffffffffffffffffffffffffffffffff82620003b2565b620003fd8683620003b2565b95508019841693508086168417925050509392505050565b6000819050919050565b6000819050919050565b60006200044a620004446200043e8462000415565b6200041f565b62000415565b9050919050565b6000819050919050565b620004668362000429565b6200047e620004758262000451565b848454620003bf565b825550505050565b600090565b6200049562000486565b620004a28184846200045b565b505050565b5b81811015620004ca57620004be6000826200048b565b600181019050620004a8565b5050565b601f8211156200051957620004e3816200038d565b620004ee84620003a2565b81016020851015620004fe578190505b620005166200050d85620003a2565b830182620004a7565b50505b505050565b600082821c905092915050565b60006200053e600019846008026200051e565b1980831691505092915050565b60006200055983836200052b565b9150826002028217905092915050565b6200057482620002ef565b67ffffffffffffffff81111562000590576200058f620002fa565b5b6200059c825462000358565b620005a9828285620004ce565b600060209050601f831160018114620005e15760008415620005cc578287015190505b620005d885826200054b565b86555062000648565b601f198416620005f1866200038d565b60005b828110156200061b57848901518255600182019150602085019450602081019050620005f4565b868310156200063b578489015162000637601f8916826200052b565b8355505b6001600288020188555050505b505050505050565b600080fd5b600073ffffffffffffffffffffffffffffffffffffffff82169050919050565b6000620006828262000655565b9050919050565b620006948162000675565b8114620006a057600080fd5b50565b600081519050620006b48162000689565b92915050565b600060208284031215620006d357620006d262000650565b5b6000620006e384828501620006a3565b91505092915050565b620006f78162000675565b82525050565b6000602082019050620007146000830184620006ec565b92915050565b61327e806200072a6000396000f3fe608060405234801561001057600080fd5b50600436106101a95760003560e01c8063715018a6116100f9578063be13197b11610097578063da3ef23f11610071578063da3ef23f146104a8578063e5873ec2146104c4578063e985e9c5146104e2578063f2fde38b14610512576101a9565b8063be13197b1461042a578063c66828621461045a578063c87b56dd14610478576101a9565b806395d89b41116100d357806395d89b41146103b6578063a22cb465146103d4578063a7586f4e146103f0578063b88d4fde1461040e576101a9565b8063715018a61461035e5780637b7d9c19146103685780638da5cb5b14610398576101a9565b806342842e0e116101665780636352211e116101405780636352211e146102b05780636c0360eb146102e05780636ce9cbc8146102fe57806370a082311461032e576101a9565b806342842e0e1461026e57806348c54b9d1461028a57806355f804b314610294576101a9565b806301ffc9a7146101ae57806306fdde03146101de578063081812fc146101fc578063095ea7b31461022c57806314f710fe1461024857806323b872dd14610252575b600080fd5b6101c860048036038101906101c39190612458565b61052e565b6040516101d591906124a0565b60405180910390f35b6101e6610610565b6040516101f3919061254b565b60405180910390f35b610216600480360381019061021191906125a3565b6106a2565b6040516102239190612611565b60405180910390f35b61024660048036038101906102419190612658565b6106be565b005b6102506106d4565b005b61026c60048036038101906102679190612698565b6108e1565b005b61028860048036038101906102839190612698565b6109e3565b005b610292610a03565b005b6102ae60048036038101906102a99190612820565b610ca5565b005b6102ca60048036038101906102c591906125a3565b610cc0565b6040516102d79190612611565b60405180910390f35b6102e8610cd2565b6040516102f5919061254b565b60405180910390f35b61031860048036038101906103139190612869565b610d60565b60405161032591906128a5565b60405180910390f35b61034860048036038101906103439190612869565b610d78565b60405161035591906128a5565b60405180910390f35b610366610e32565b005b610382600480360381019061037d9190612869565b610e46565b60405161038f91906128a5565b60405180910390f35b6103a0610e5e565b6040516103ad9190612611565b60405180910390f35b6103be610e88565b6040516103cb919061254b565b60405180910390f35b6103ee60048036038101906103e991906128ec565b610f1a565b005b6103f8610f30565b60405161040591906128a5565b60405180910390f35b610428600480360381019061042391906129cd565b610f36565b005b610444600480360381019061043f9190612869565b6111bc565b60405161045191906128a5565b60405180910390f35b6104626111d4565b60405161046f919061254b565b60405180910390f35b610492600480360381019061048d91906125a3565b611262565b60405161049f919061254b565b60405180910390f35b6104c260048036038101906104bd9190612820565b611309565b005b6104cc611324565b6040516104d99190612aaf565b60405180910390f35b6104fc60048036038101906104f79190612aca565b61134a565b60405161050991906124a0565b60405180910390f35b61052c60048036038101906105279190612869565b6113de565b005b60007f80ac58cd000000000000000000000000000000000000000000000000000000007bffffffffffffffffffffffffffffffffffffffffffffffffffffffff1916827bffffffffffffffffffffffffffffffffffffffffffffffffffffffff191614806105f957507f5b5e139f000000000000000000000000000000000000000000000000000000007bffffffffffffffffffffffffffffffffffffffffffffffffffffffff1916827bffffffffffffffffffffffffffffffffffffffffffffffffffffffff1916145b80610609575061060882611464565b5b9050919050565b60606000805461061f90612b39565b80601f016020809104026020016040519081016040528092919081815260200182805461064b90612b39565b80156106985780601f1061066d57610100808354040283529160200191610698565b820191906000526020600020905b81548152906001019060200180831161067b57829003601f168201915b5050505050905090565b60006106ad826114ce565b506106b782611556565b9050919050565b6106d082826106cb611593565b61159b565b5050565b6106e033600b546115ad565b6001600b60008282546106f39190612b99565b925050819055506001600860003373ffffffffffffffffffffffffffffffffffffffff1673ffffffffffffffffffffffffffffffffffffffff168152602001908152602001600020600082825461074a9190612b99565b9250508190555042600c819055506107ac600960003373ffffffffffffffffffffffffffffffffffffffff1673ffffffffffffffffffffffffffffffffffffffff16815260200190815260200160002054600c546115cb90919063ffffffff16565b600e6000600d600084919050558391906101000a81548160ff021916908315150217905550505062015180600d5460646001600860003373ffffffffffffffffffffffffffffffffffffffff1673ffffffffffffffffffffffffffffffffffffffff168152602001908152602001600020546108289190612bcd565b6108329190612c01565b61083c9190612c01565b6108469190612c72565b600a60003373ffffffffffffffffffffffffffffffffffffffff1673ffffffffffffffffffffffffffffffffffffffff16815260200190815260200160002060008282546108949190612b99565b9250508190555042600960003373ffffffffffffffffffffffffffffffffffffffff1673ffffffffffffffffffffffffffffffffffffffff16815260200190815260200160002081905550565b600073ffffffffffffffffffffffffffffffffffffffff168273ffffffffffffffffffffffffffffffffffffffff16036109535760006040517f64a0ae9200000000000000000000000000000000000000000000000000000000815260040161094a9190612611565b60405180910390fd5b60006109678383610962611593565b6115f3565b90508373ffffffffffffffffffffffffffffffffffffffff168173ffffffffffffffffffffffffffffffffffffffff16146109dd578382826040517f64283d7b0000000000000000000000000000000000000000000000000000000081526004016109d493929190612ca3565b60405180910390fd5b50505050565b6109fe83838360405180602001604052806000815250610f36565b505050565b42600c81905550610a5e600960003373ffffffffffffffffffffffffffffffffffffffff1673ffffffffffffffffffffffffffffffffffffffff16815260200190815260200160002054600c546115cb90919063ffffffff16565b600e6000600d600084919050558391906101000a81548160ff02191690831515021790555050506000600a60003373ffffffffffffffffffffffffffffffffffffffff1673ffffffffffffffffffffffffffffffffffffffff1681526020019081526020016000205462015180600860003373ffffffffffffffffffffffffffffffffffffffff1673ffffffffffffffffffffffffffffffffffffffff16815260200190815260200160002054600d546064610b1a9190612c01565b610b249190612c01565b610b2e9190612c72565b610b389190612b99565b81610b439190612b99565b90506000600a60003373ffffffffffffffffffffffffffffffffffffffff1673ffffffffffffffffffffffffffffffffffffffff1681526020019081526020016000208190555060008111610bcd576040517f08c379a0000000000000000000000000000000000000000000000000000000008152600401610bc490612d26565b60405180910390fd5b600760009054906101000a900473ffffffffffffffffffffffffffffffffffffffff1673ffffffffffffffffffffffffffffffffffffffff166340c10f1933836040518363ffffffff1660e01b8152600401610c2a929190612d46565b600060405180830381600087803b158015610c4457600080fd5b505af1158015610c58573d6000803e3d6000fd5b50505050600c54600960003373ffffffffffffffffffffffffffffffffffffffff1673ffffffffffffffffffffffffffffffffffffffff1681526020019081526020016000208190555050565b610cad61180d565b80600f9081610cbc9190612f11565b5050565b6000610ccb826114ce565b9050919050565b600f8054610cdf90612b39565b80601f0160208091040260200160405190810160405280929190818152602001828054610d0b90612b39565b8015610d585780601f10610d2d57610100808354040283529160200191610d58565b820191906000526020600020905b815481529060010190602001808311610d3b57829003601f168201915b505050505081565b60086020528060005260406000206000915090505481565b60008073ffffffffffffffffffffffffffffffffffffffff168273ffffffffffffffffffffffffffffffffffffffff1603610deb5760006040517f89c62b64000000000000000000000000000000000000000000000000000000008152600401610de29190612611565b60405180910390fd5b600360008373ffffffffffffffffffffffffffffffffffffffff1673ffffffffffffffffffffffffffffffffffffffff168152602001908152602001600020549050919050565b610e3a61180d565b610e446000611894565b565b600a6020528060005260406000206000915090505481565b6000600660009054906101000a900473ffffffffffffffffffffffffffffffffffffffff16905090565b606060018054610e9790612b39565b80601f0160208091040260200160405190810160405280929190818152602001828054610ec390612b39565b8015610f105780601f10610ee557610100808354040283529160200191610f10565b820191906000526020600020905b815481529060010190602001808311610ef357829003601f168201915b5050505050905090565b610f2c610f25611593565b838361195a565b5050565b600b5481565b42600c81905550610f91600960003373ffffffffffffffffffffffffffffffffffffffff1673ffffffffffffffffffffffffffffffffffffffff16815260200190815260200160002054600c546115cb90919063ffffffff16565b600e6000600d600084919050558391906101000a81548160ff021916908315150217905550505062015180600d546064600860008873ffffffffffffffffffffffffffffffffffffffff1673ffffffffffffffffffffffffffffffffffffffff1681526020019081526020016000205461100b9190612c01565b6110159190612c01565b61101f9190612c72565b600a60008673ffffffffffffffffffffffffffffffffffffffff1673ffffffffffffffffffffffffffffffffffffffff168152602001908152602001600020600082825461106d9190612b99565b925050819055506001600860008673ffffffffffffffffffffffffffffffffffffffff1673ffffffffffffffffffffffffffffffffffffffff16815260200190815260200160002060008282546110c49190612bcd565b925050819055506001600860008573ffffffffffffffffffffffffffffffffffffffff1673ffffffffffffffffffffffffffffffffffffffff168152602001908152602001600020600082825461111b9190612b99565b9250508190555061112e84848484611ac9565b42600960008673ffffffffffffffffffffffffffffffffffffffff1673ffffffffffffffffffffffffffffffffffffffff1681526020019081526020016000208190555042600960008573ffffffffffffffffffffffffffffffffffffffff1673ffffffffffffffffffffffffffffffffffffffff1681526020019081526020016000208190555050505050565b60096020528060005260406000206000915090505481565b601080546111e190612b39565b80601f016020809104026020016040519081016040528092919081815260200182805461120d90612b39565b801561125a5780601f1061122f5761010080835404028352916020019161125a565b820191906000526020600020905b81548152906001019060200180831161123d57829003601f168201915b505050505081565b6060600b548211156112a9576040517f08c379a00000000000000000000000000000000000000000000000000000000081526004016112a090613055565b60405180910390fd5b60006112b3611ae6565b905060008151116112d35760405180602001604052806000815250611301565b806112dd84611b78565b60106040516020016112f193929190613134565b6040516020818303038152906040525b915050919050565b61131161180d565b80601090816113209190612f11565b5050565b600760009054906101000a900473ffffffffffffffffffffffffffffffffffffffff1681565b6000600560008473ffffffffffffffffffffffffffffffffffffffff1673ffffffffffffffffffffffffffffffffffffffff16815260200190815260200160002060008373ffffffffffffffffffffffffffffffffffffffff1673ffffffffffffffffffffffffffffffffffffffff16815260200190815260200160002060009054906101000a900460ff16905092915050565b6113e661180d565b600073ffffffffffffffffffffffffffffffffffffffff168173ffffffffffffffffffffffffffffffffffffffff16036114585760006040517f1e4fbdf700000000000000000000000000000000000000000000000000000000815260040161144f9190612611565b60405180910390fd5b61146181611894565b50565b60007f01ffc9a7000000000000000000000000000000000000000000000000000000007bffffffffffffffffffffffffffffffffffffffffffffffffffffffff1916827bffffffffffffffffffffffffffffffffffffffffffffffffffffffff1916149050919050565b6000806114da83611c46565b9050600073ffffffffffffffffffffffffffffffffffffffff168173ffffffffffffffffffffffffffffffffffffffff160361154d57826040517f7e27328900000000000000000000000000000000000000000000000000000000815260040161154491906128a5565b60405180910390fd5b80915050919050565b60006004600083815260200190815260200160002060009054906101000a900473ffffffffffffffffffffffffffffffffffffffff169050919050565b600033905090565b6115a88383836001611c83565b505050565b6115c7828260405180602001604052806000815250611e48565b5050565b600080838311156115e257600080915091506115ec565b6001838503915091505b9250929050565b6000806115ff84611c46565b9050600073ffffffffffffffffffffffffffffffffffffffff168373ffffffffffffffffffffffffffffffffffffffff161461164157611640818486611e64565b5b600073ffffffffffffffffffffffffffffffffffffffff168173ffffffffffffffffffffffffffffffffffffffff16146116d257611683600085600080611c83565b6001600360008373ffffffffffffffffffffffffffffffffffffffff1673ffffffffffffffffffffffffffffffffffffffff168152602001908152602001600020600082825403925050819055505b600073ffffffffffffffffffffffffffffffffffffffff168573ffffffffffffffffffffffffffffffffffffffff1614611755576001600360008773ffffffffffffffffffffffffffffffffffffffff1673ffffffffffffffffffffffffffffffffffffffff168152602001908152602001600020600082825401925050819055505b846002600086815260200190815260200160002060006101000a81548173ffffffffffffffffffffffffffffffffffffffff021916908373ffffffffffffffffffffffffffffffffffffffff160217905550838573ffffffffffffffffffffffffffffffffffffffff168273ffffffffffffffffffffffffffffffffffffffff167fddf252ad1be2c89b69c2b068fc378daa952ba7f163c4a11628f55a4df523b3ef60405160405180910390a4809150509392505050565b611815611593565b73ffffffffffffffffffffffffffffffffffffffff16611833610e5e565b73ffffffffffffffffffffffffffffffffffffffff161461189257611856611593565b6040517f118cdaa70000000000000000000000000000000000000000000000000000000081526004016118899190612611565b60405180910390fd5b565b6000600660009054906101000a900473ffffffffffffffffffffffffffffffffffffffff16905081600660006101000a81548173ffffffffffffffffffffffffffffffffffffffff021916908373ffffffffffffffffffffffffffffffffffffffff1602179055508173ffffffffffffffffffffffffffffffffffffffff168173ffffffffffffffffffffffffffffffffffffffff167f8be0079c531659141344cd1fd0a4f28419497f9722a3daafe3b4186f6b6457e060405160405180910390a35050565b600073ffffffffffffffffffffffffffffffffffffffff168273ffffffffffffffffffffffffffffffffffffffff16036119cb57816040517f5b08ba180000000000000000000000000000000000000000000000000000000081526004016119c29190612611565b60405180910390fd5b80600560008573ffffffffffffffffffffffffffffffffffffffff1673ffffffffffffffffffffffffffffffffffffffff16815260200190815260200160002060008473ffffffffffffffffffffffffffffffffffffffff1673ffffffffffffffffffffffffffffffffffffffff16815260200190815260200160002060006101000a81548160ff0219169083151502179055508173ffffffffffffffffffffffffffffffffffffffff168373ffffffffffffffffffffffffffffffffffffffff167f17307eab39ab6107e8899845ad3d59bd9653f200f220920489ca2b5937696c3183604051611abc91906124a0565b60405180910390a3505050565b611ad48484846108e1565b611ae084848484611f28565b50505050565b6060600f8054611af590612b39565b80601f0160208091040260200160405190810160405280929190818152602001828054611b2190612b39565b8015611b6e5780601f10611b4357610100808354040283529160200191611b6e565b820191906000526020600020905b815481529060010190602001808311611b5157829003601f168201915b5050505050905090565b606060006001611b87846120df565b01905060008167ffffffffffffffff811115611ba657611ba56126f5565b5b6040519080825280601f01601f191660200182016040528015611bd85781602001600182028036833780820191505090505b509050600082602001820190505b600115611c3b578080600190039150507f3031323334353637383961626364656600000000000000000000000000000000600a86061a8153600a8581611c2f57611c2e612c43565b5b04945060008503611be6575b819350505050919050565b60006002600083815260200190815260200160002060009054906101000a900473ffffffffffffffffffffffffffffffffffffffff169050919050565b8080611cbc5750600073ffffffffffffffffffffffffffffffffffffffff168273ffffffffffffffffffffffffffffffffffffffff1614155b15611df0576000611ccc846114ce565b9050600073ffffffffffffffffffffffffffffffffffffffff168373ffffffffffffffffffffffffffffffffffffffff1614158015611d3757508273ffffffffffffffffffffffffffffffffffffffff168173ffffffffffffffffffffffffffffffffffffffff1614155b8015611d4a5750611d48818461134a565b155b15611d8c57826040517fa9fbf51f000000000000000000000000000000000000000000000000000000008152600401611d839190612611565b60405180910390fd5b8115611dee57838573ffffffffffffffffffffffffffffffffffffffff168273ffffffffffffffffffffffffffffffffffffffff167f8c5be1e5ebec7d5bd14f71427d1e84f3dd0314c0f7b2291e5b200ac8c7c3b92560405160405180910390a45b505b836004600085815260200190815260200160002060006101000a81548173ffffffffffffffffffffffffffffffffffffffff021916908373ffffffffffffffffffffffffffffffffffffffff16021790555050505050565b611e528383612232565b611e5f6000848484611f28565b505050565b611e6f83838361232b565b611f2357600073ffffffffffffffffffffffffffffffffffffffff168373ffffffffffffffffffffffffffffffffffffffff1603611ee457806040517f7e273289000000000000000000000000000000000000000000000000000000008152600401611edb91906128a5565b60405180910390fd5b81816040517f177e802f000000000000000000000000000000000000000000000000000000008152600401611f1a929190612d46565b60405180910390fd5b505050565b60008373ffffffffffffffffffffffffffffffffffffffff163b11156120d9578273ffffffffffffffffffffffffffffffffffffffff1663150b7a02611f6c611593565b8685856040518563ffffffff1660e01b8152600401611f8e94939291906131ba565b6020604051808303816000875af1925050508015611fca57506040513d601f19601f82011682018060405250810190611fc7919061321b565b60015b61204e573d8060008114611ffa576040519150601f19603f3d011682016040523d82523d6000602084013e611fff565b606091505b50600081510361204657836040517f64a0ae9200000000000000000000000000000000000000000000000000000000815260040161203d9190612611565b60405180910390fd5b805181602001fd5b63150b7a0260e01b7bffffffffffffffffffffffffffffffffffffffffffffffffffffffff1916817bffffffffffffffffffffffffffffffffffffffffffffffffffffffff1916146120d757836040517f64a0ae920000000000000000000000000000000000000000000000000000000081526004016120ce9190612611565b60405180910390fd5b505b50505050565b600080600090507a184f03e93ff9f4daa797ed6e38ed64bf6a1f010000000000000000831061213d577a184f03e93ff9f4daa797ed6e38ed64bf6a1f010000000000000000838161213357612132612c43565b5b0492506040810190505b6d04ee2d6d415b85acef8100000000831061217a576d04ee2d6d415b85acef810000000083816121705761216f612c43565b5b0492506020810190505b662386f26fc1000083106121a957662386f26fc10000838161219f5761219e612c43565b5b0492506010810190505b6305f5e10083106121d2576305f5e10083816121c8576121c7612c43565b5b0492506008810190505b61271083106121f75761271083816121ed576121ec612c43565b5b0492506004810190505b6064831061221a57606483816122105761220f612c43565b5b0492506002810190505b600a8310612229576001810190505b80915050919050565b600073ffffffffffffffffffffffffffffffffffffffff168273ffffffffffffffffffffffffffffffffffffffff16036122a45760006040517f64a0ae9200000000000000000000000000000000000000000000000000000000815260040161229b9190612611565b60405180910390fd5b60006122b2838360006115f3565b9050600073ffffffffffffffffffffffffffffffffffffffff168173ffffffffffffffffffffffffffffffffffffffff16146123265760006040517f73c6ac6e00000000000000000000000000000000000000000000000000000000815260040161231d9190612611565b60405180910390fd5b505050565b60008073ffffffffffffffffffffffffffffffffffffffff168373ffffffffffffffffffffffffffffffffffffffff16141580156123e357508273ffffffffffffffffffffffffffffffffffffffff168473ffffffffffffffffffffffffffffffffffffffff1614806123a457506123a3848461134a565b5b806123e257508273ffffffffffffffffffffffffffffffffffffffff166123ca83611556565b73ffffffffffffffffffffffffffffffffffffffff16145b5b90509392505050565b6000604051905090565b600080fd5b600080fd5b60007fffffffff0000000000000000000000000000000000000000000000000000000082169050919050565b61243581612400565b811461244057600080fd5b50565b6000813590506124528161242c565b92915050565b60006020828403121561246e5761246d6123f6565b5b600061247c84828501612443565b91505092915050565b60008115159050919050565b61249a81612485565b82525050565b60006020820190506124b56000830184612491565b92915050565b600081519050919050565b600082825260208201905092915050565b60005b838110156124f55780820151818401526020810190506124da565b60008484015250505050565b6000601f19601f8301169050919050565b600061251d826124bb565b61252781856124c6565b93506125378185602086016124d7565b61254081612501565b840191505092915050565b600060208201905081810360008301526125658184612512565b905092915050565b6000819050919050565b6125808161256d565b811461258b57600080fd5b50565b60008135905061259d81612577565b92915050565b6000602082840312156125b9576125b86123f6565b5b60006125c78482850161258e565b91505092915050565b600073ffffffffffffffffffffffffffffffffffffffff82169050919050565b60006125fb826125d0565b9050919050565b61260b816125f0565b82525050565b60006020820190506126266000830184612602565b92915050565b612635816125f0565b811461264057600080fd5b50565b6000813590506126528161262c565b92915050565b6000806040838503121561266f5761266e6123f6565b5b600061267d85828601612643565b925050602061268e8582860161258e565b9150509250929050565b6000806000606084860312156126b1576126b06123f6565b5b60006126bf86828701612643565b93505060206126d086828701612643565b92505060406126e18682870161258e565b9150509250925092565b600080fd5b600080fd5b7f4e487b7100000000000000000000000000000000000000000000000000000000600052604160045260246000fd5b61272d82612501565b810181811067ffffffffffffffff8211171561274c5761274b6126f5565b5b80604052505050565b600061275f6123ec565b905061276b8282612724565b919050565b600067ffffffffffffffff82111561278b5761278a6126f5565b5b61279482612501565b9050602081019050919050565b82818337600083830152505050565b60006127c36127be84612770565b612755565b9050828152602081018484840111156127df576127de6126f0565b5b6127ea8482856127a1565b509392505050565b600082601f830112612807576128066126eb565b5b81356128178482602086016127b0565b91505092915050565b600060208284031215612836576128356123f6565b5b600082013567ffffffffffffffff811115612854576128536123fb565b5b612860848285016127f2565b91505092915050565b60006020828403121561287f5761287e6123f6565b5b600061288d84828501612643565b91505092915050565b61289f8161256d565b82525050565b60006020820190506128ba6000830184612896565b92915050565b6128c981612485565b81146128d457600080fd5b50565b6000813590506128e6816128c0565b92915050565b60008060408385031215612903576129026123f6565b5b600061291185828601612643565b9250506020612922858286016128d7565b9150509250929050565b600067ffffffffffffffff821115612947576129466126f5565b5b61295082612501565b9050602081019050919050565b600061297061296b8461292c565b612755565b90508281526020810184848401111561298c5761298b6126f0565b5b6129978482856127a1565b509392505050565b600082601f8301126129b4576129b36126eb565b5b81356129c484826020860161295d565b91505092915050565b600080600080608085870312156129e7576129e66123f6565b5b60006129f587828801612643565b9450506020612a0687828801612643565b9350506040612a178782880161258e565b925050606085013567ffffffffffffffff811115612a3857612a376123fb565b5b612a448782880161299f565b91505092959194509250565b6000819050919050565b6000612a75612a70612a6b846125d0565b612a50565b6125d0565b9050919050565b6000612a8782612a5a565b9050919050565b6000612a9982612a7c565b9050919050565b612aa981612a8e565b82525050565b6000602082019050612ac46000830184612aa0565b92915050565b60008060408385031215612ae157612ae06123f6565b5b6000612aef85828601612643565b9250506020612b0085828601612643565b9150509250929050565b7f4e487b7100000000000000000000000000000000000000000000000000000000600052602260045260246000fd5b60006002820490506001821680612b5157607f821691505b602082108103612b6457612b63612b0a565b5b50919050565b7f4e487b7100000000000000000000000000000000000000000000000000000000600052601160045260246000fd5b6000612ba48261256d565b9150612baf8361256d565b9250828201905080821115612bc757612bc6612b6a565b5b92915050565b6000612bd88261256d565b9150612be38361256d565b9250828203905081811115612bfb57612bfa612b6a565b5b92915050565b6000612c0c8261256d565b9150612c178361256d565b9250828202612c258161256d565b91508282048414831517612c3c57612c3b612b6a565b5b5092915050565b7f4e487b7100000000000000000000000000000000000000000000000000000000600052601260045260246000fd5b6000612c7d8261256d565b9150612c888361256d565b925082612c9857612c97612c43565b5b828204905092915050565b6000606082019050612cb86000830186612602565b612cc56020830185612896565b612cd26040830184612602565b949350505050565b7f4e6f20746f6b656e7320746f20636c61696d0000000000000000000000000000600082015250565b6000612d106012836124c6565b9150612d1b82612cda565b602082019050919050565b60006020820190508181036000830152612d3f81612d03565b9050919050565b6000604082019050612d5b6000830185612602565b612d686020830184612896565b9392505050565b60008190508160005260206000209050919050565b60006020601f8301049050919050565b600082821b905092915050565b600060088302612dd17fffffffffffffffffffffffffffffffffffffffffffffffffffffffffffffffff82612d94565b612ddb8683612d94565b95508019841693508086168417925050509392505050565b6000612e0e612e09612e048461256d565b612a50565b61256d565b9050919050565b6000819050919050565b612e2883612df3565b612e3c612e3482612e15565b848454612da1565b825550505050565b600090565b612e51612e44565b612e5c818484612e1f565b505050565b5b81811015612e8057612e75600082612e49565b600181019050612e62565b5050565b601f821115612ec557612e9681612d6f565b612e9f84612d84565b81016020851015612eae578190505b612ec2612eba85612d84565b830182612e61565b50505b505050565b600082821c905092915050565b6000612ee860001984600802612eca565b1980831691505092915050565b6000612f018383612ed7565b9150826002028217905092915050565b612f1a826124bb565b67ffffffffffffffff811115612f3357612f326126f5565b5b612f3d8254612b39565b612f48828285612e84565b600060209050601f831160018114612f7b5760008415612f69578287015190505b612f738582612ef5565b865550612fdb565b601f198416612f8986612d6f565b60005b82811015612fb157848901518255600182019150602085019450602081019050612f8c565b86831015612fce5784890151612fca601f891682612ed7565b8355505b6001600288020188555050505b505050505050565b7f4552433732314d657461646174613a2055524920717565727920666f72206e6f60008201527f6e6578697374656e7420746f6b656e0000000000000000000000000000000000602082015250565b600061303f602f836124c6565b915061304a82612fe3565b604082019050919050565b6000602082019050818103600083015261306e81613032565b9050919050565b600081905092915050565b600061308b826124bb565b6130958185613075565b93506130a58185602086016124d7565b80840191505092915050565b600081546130be81612b39565b6130c88186613075565b945060018216600081146130e357600181146130f85761312b565b60ff198316865281151582028601935061312b565b61310185612d6f565b60005b8381101561312357815481890152600182019150602081019050613104565b838801955050505b50505092915050565b60006131408286613080565b915061314c8285613080565b915061315882846130b1565b9150819050949350505050565b600081519050919050565b600082825260208201905092915050565b600061318c82613165565b6131968185613170565b93506131a68185602086016124d7565b6131af81612501565b840191505092915050565b60006080820190506131cf6000830187612602565b6131dc6020830186612602565b6131e96040830185612896565b81810360608301526131fb8184613181565b905095945050505050565b6000815190506132158161242c565b92915050565b600060208284031215613231576132306123f6565b5b600061323f84828501613206565b9150509291505056fea2646970667358221220c8bca674f29f16d14230cfa11ad6401a5e80f3b69087588e339849c7505780dc64736f6c63430008140033",
  "linkReferences": {},
  "deployedLinkReferences": {}
}